:020000040800F2
:1000000058320020B9020008BB4700088F410008A1
:10001000B9470008BD0600084B6D0008000000004D
:10002000000000000000000000000000634B00081A
:100030000907000800000000434B00086F4B000850
:10004000D3020008D3020008D3020008D30200083C
:10005000D3020008D3020008D3020008D30200082C
:10006000D3020008D3020008D3020008D30200081C
:10007000D3020008D3020008D3020008D30200080C
:10008000D3020008D3020008D9050008D3020008F3
:10009000E16C0008D3020008D3020008D302000874
:1000A000D3020008D3020008D3020008D3020008DC
:1000B000ED4B0008F94B0008D3020008D3020008FA
:1000C000D3020008D3020008D3020008454B000801
:1000D000D3020008D3020008D3020008D3020008AC
:1000E000D3020008D3020008D3020008D30200089C
:1000F000D3020008D3020008D3020008D30200088C
:10010000D3020008D3020008D3020008D30200087B
:10011000D3020008D3020008054C0008D3020008EF
:10012000D3020008D3020008D3020008D30200085B
:10013000D3020008D3020008D3020008D30200084B
:10014000D3020008D3020008D3020008D30200083B
:10015000D3020008D3020008D3020008D30200082B
:10016000D3020008D3020008D3020008D30200081B
:10017000D3020008D3020008D3020008D30200080B
:10018000D3020008D3020008D3020008D3020008FB
:10019000D302000800000000D3020008D3020008C8
:1001A000D3020008D3020008D3020008D3020008DB
:1001B000D3020008D3020008D3020008D3020008CB
:1001C000D3020008D3020008D3020008D3020008BB
:1001D000D3020008D302000800F002F800F05CF837
:1001E0000AA090E8000C82448344AAF10107DA4592
:1001F00001D100F051F8AFF2090EBAE80F0013F088
:10020000010F18BFFB1A43F0010318479477000051
:10021000B47700000A444FF0000C10F8013B13F0D3
:10022000070408BF10F8014B1D1108BF10F8015B4F
:10023000641E05D010F8016B641E01F8016BF9D142
:1002400013F0080F1EBF10F8014BAD1C0C1B09D199
:100250006D1E58BF01F801CBFAD505E014F8016B0B
:1002600001F8016B6D1EF9D59142D6D3704700009D
:100270000023002400250026103A28BF78C1FBD8AF
:10028000520728BF30C148BF0B6070471FB506F04A
:100290005FFF1FBD10B510BD00F0D4F81146FFF789
:1002A000F5FF06F07FFD00F0F2F803B4FFF7F2FF70
:1002B00003BC00F0F5F800000948804709480047F2
:1002C000FEE7FEE7FEE7FEE7FEE7FEE7FEE7FEE706
:1002D000FEE7FEE704480549054A064B7047000063
:1002E000DD4B0008D90100085820002058320020BA
:1002F000582200205822002053EA020C00F06980A6
:100300002DE9F04B4FF00006002B1FBFB3FA83F529
:1003100003FA05F424FA05F65E4012BF1643B2FA5A
:1003200082F502FA05F4C5F120051EBF22FA05FC8C
:1003300044EA0C04203556EA044C4FEA144418BF32
:10034000641C4FF000084FF00009904271EB030C61
:1003500039D3002919BFB1FA81F701FA07F6B0FACB
:1003600080F700FA07F6C7F120071EBF20FA07FC46
:1003700046EA0C062037B6FBF4FCA7EB0507103F56
:1003800007F01F0BCBF120060CFA0BFB2CFA06F63C
:1003900044BFB3460026202FA4BF5E464FF0000B9B
:1003A0005BEA060C08BF4FF0010B19EB0B09ABFB26
:1003B000027C48EB0608C01B06FB02CC0BFB03CCFF
:1003C00071EB0C01C1E70B46024641464846BDE8C9
:1003D000F08B13B54FF000004FF00001AFF3008039
:1003E000BDE81C4070474FF0000200B5134694462C
:1003F0009646203922BFA0E80C50A0E80C50B1F17D
:100400002001BFF4F7AF090728BFA0E80C5048BF90
:100410000CC05DF804EB890028BF40F8042B08BF2E
:10042000704748BF20F8022B11F0804F18BF00F82A
:10043000012B7047704770477047000000487047B5
:10044000F41F00207546FFF7F9FFAE460500694628
:10045000534620F00700854618B020B5FFF73AFF55
:10046000BDE820404FF000064FF000074FF00008B5
:100470004FF0000B21F00701AC46ACE8C009ACE836
:10048000C009ACE8C009ACE8C0098D46704710B59A
:100490000446AFF300802046BDE81040FFF705BFDB
:1004A00001491820ABBEFEE726000200704700009D
:1004B0009FED221A9FED222A20EE010AB5EE001AC6
:1004C00030EE010ABDEEC01A11EE100AB5EE400A78
:1004D000F1EE10FAB8BF013801EE100AB8EEC11AF9
:1004E00030EE410A20EE020ABDEEC01A9FED152A39
:1004F00011EE100A002130EE021AB1EB502F47F234
:100500009C111CBF0020B0EE410AC0F6000101EEB4
:10051000100A01EB8001B8EE411A30EE410A91ED6C
:10052000001A91ED012AB7EE003A33EE403A23EE7D
:10053000011A20EE020A31EE000A704783F9223ECA
:1005400000000044000000C49FED201A9FED202A07
:1005500020EE010ABDEEC01A11EE100AB5EE400AF7
:10056000F1EE10FAB8BF013801EE100AB8EEC11A68
:1005700030EE410A20EE020ABDEEC01A9FED152AA8
:1005800011EE100A002130EE021AB1EB502F47F2A3
:100590009C111CBF0020B0EE410AC0F6000101EE24
:1005A000100A01EB8001B8EE411A30EE410A91EDDC
:1005B000001A91ED012AB7EE003A33EE403A23EEED
:1005C000011A20EE020A31EE000A704783F9223E3A
:1005D00000000044000000C410B5044800F060FFB3
:1005E000BDE81040024800F05BBF0000A4010020FD
:1005F00010020020F8B5044600200090206803F0A7
:10060000F6FDE8BB20688168264A114237D181682F
:10061000D6433140491C81602068B0F1A04F02D020
:100620002149884201D1214800E02148806800F03A
:10063000E07000020DD51F481F490068B0FBF1F0C3
:10064000401C00EB4000800000E0401E00900028AD
:10065000FBD101F03FFB05461DE003F0C8FD20B9CA
:10066000206881683140491C816001F033FB401BE8
:10067000022810D920680068C043C0070BD000E0F2
:100680000EE0E06D40F01000E065206E40F00100EB
:1006900020660120F8BD20680168C943C907DCD184
:1006A0000020F8BD3F000080000100500003005012
:1006B0000007005078000020400D0300FEE70020F6
:1006C000704700207047000010B50022044905481B
:1006D00005F041F90449034805F034F9002010BD44
:1006E00070160020A0090020700E002010B50146F1
:1006F000034805F027F9024805F0ECF8002010BD8A
:10070000A009002000207047704772B6FEE77047CE
:100710002DE9F84F4FF000090446CDF800900D4642
:1007200094F85820DFF8008461694F464846012A52
:100730000AD00126FD4A84F8586041B1296A01298E
:1007400005D0A36EEBB129E00220BDE8F88F686800
:10075000092838D1A96A4FF4785041B12B6801F0CB
:100760007C0100EA53400843E96A084302E0296833
:1007700000EA51402168CB6C13400343CB646066B0
:1007800021E0C4E91971A96A286A31B101F07C013C
:10079000401E0843E96A084300E0401E2968C1F38F
:1007A0008463297901F01F018B40A16E0343491E28
:1007B000A166606E40EA0300606604D12168CB6CDC
:1007C00013400343CB64206803F00DFD58B995F83E
:1007D000250098B12068C16895F8262021F44011C1
:1007E00041EA4251C160206803F00DFD8246206855
:1007F00003F0F9FC5AEA00010DD0FAE095F8260062
:1008000095F82410400540EA01512068C26822F49E
:1008100040121143E6E7A86A30B1E86A20B195F8C2
:10082000250001285DD003E095F82500012804D0BB
:100830002068C16821F0007103E02068C16841F0C0
:100840000071C16095F83000012851D0206801691D
:1008500021F002010161AA6829682068B2F1004F05
:1008600037D003F0EBFC2068416921F00041416181
:1008700020686969C268C2F3C102520091402A69C6
:10088000042A43D000EB82002B68026EDFF8A0C27E
:1008900003F0F84302EA0C020B431A4342F0004112
:1008A000016622682869A96902EB8000026E22F0C5
:1008B00080720A430266297F22682869012922D0B2
:1008C000002102EB8000026E22F000720A430266F1
:1008D0008FE0002203F0B2FC2068416941F0004142
:1008E000C5E7E06D40F02000E0654FF00109A9E7A1
:1008F000D5E90D1001432068026922F4FF7242F02D
:1009000002021143A6E74FF00071DAE7002103F07D
:1009100060FC400320684FF0000171D003F059FCE7
:1009200090FAA0F0B0FA80F1286842036DD090FAF6
:10093000A0F0B0FA80F0814204D100221146206874
:1009400003F093FC0121206803F043FC400320687E
:100950004FF001015CD003F03CFC90FAA0F0B0FA3B
:1009600080F12868420358D090FAA0F0B0FA80F0E5
:10097000814204D100220121206803F076FC02218B
:10098000206803F026FC400320684FF0020147D0A6
:1009900003F01FFC90FAA0F0B0FA80F1286842033F
:1009A00043D090FAA0F0B0FA80F0814204D1002246
:1009B0000221206803F059FC0321206803F009FCA0
:1009C000400320684FF0030132D003F002FC90FA9C
:1009D000A0F0B0FA80F1286842032ED090FAA0F07F
:1009E000B0FA80F0814204D100220321206803F094
:1009F0003CFC206803F0FFFB10B3B3E000E004E030
:100A000003F0E7FBC0F384618EE7C0F3846092E7F4
:100A100003F0DFFBC0F38461A3E7C0F38460A7E7C2
:100A200003F0D7FBC0F38461B8E7C0F38460BCE790
:100A300003F0CFFBC0F38461CDE7C0F38460D1E75E
:100A400021682A7B286851F8B03FC0F3120C23EAD2
:100A50000C0302F0180C374A22FA0CF2024013433E
:100A60000B60E96841457DD1286841031AD090FAAE
:100A7000A0F1B1FA81F1491C01F01F0109294FEAE7
:100A8000403130D8002910D090FAA0F1B1FA81F1AC
:100A900001F1010101F01F0106FA01F608D1C0F3CE
:100AA000846109E0C0F38461E5E7C0F38461EFE7A6
:100AB00090FAA0F1B1FA81F101F1010101F01F01F9
:100AC00046EA816102D1C0F3846003E090FAA0F0AD
:100AD000B0FA80F000F1010000F01F0000EB4000D0
:100AE00041EA00513AE000290DD090FAA0F1B1FAA4
:100AF00081F101F1010101F01F0106FA01F605D1B2
:100B0000C0F3846106E0C0F38461F2E790FAA0F1DB
:100B1000B1FA81F101F1010101F01F0146EA8161A1
:100B20000BD1C0F384600CE000007F400040100453
:100B300000F0FF03FFFF070014E090FAA0F0B0FA06
:100B400080F000F1010000F01F003A4A00EB400085
:100B500002EB005041EA000141F00071AA682068F0
:100B600003F06CFB34482A6802425ED020684FF0E4
:100B7000A04C324B324E334D604501D0A84201D1DA
:100B8000194600E031468968DFF8BC8001F0E07169
:100B9000424503D0DFF8B480424520D15FEA012806
:100BA0001DD4604505D02A4A90423ED1A84200D0CB
:100BB000334641F40000996821F0E07101439960E7
:100BC000244825490068B0FBF1F0801C00EB400090
:100BD000800000E0401E00900028FBD125E0DFF8F7
:100BE0007C8042450FD15FEAC1180CD4A84202D1E3
:100BF0001B4A904219D0604502D0A84200D033462B
:100C000041F080700CE0DFF85C8042450DD14A0273
:100C10000BD4A84209D0604500D0334641F480008F
:100C2000996821F0E0710143996084F85870484652
:100C30008BE50000000020FE00000880000300504B
:100C40000007005000010050000021C31000C090B8
:100C50000006005078000020400D0300000052C73D
:100C600000050050000084CB704770472DE9F0412B
:100C7000044600684FF0A0463E4FB04201D0B84253
:100C800001D13D4900E03D49896801F01F0503F0AD
:100C9000AAFA08BB2068C168C06C01F0004110F4DA
:100CA000C07F00D191B194F85800012814D00120E0
:100CB00084F858002046FFF79DFC01004FF0000229
:100CC0000CD084F858200846BDE8F081E06D40F073
:100CD0002000E0650120F7E70220F5E7E06DC005A0
:100CE00004D5206E20F00800206600E02266E06D4A
:100CF00042F20103984340F48050E0652068204BA5
:100D0000DFF880C0B84201D1B64604E0984201D174
:100D1000E64600E08646864500D02DB9D4F85CE072
:100D20002EF4801EC4F85CE04FF0600EC0F800E0C6
:100D300084F858202068B84204D0984201D1664611
:100D400000E00646864209D045B1062D06D0072DA3
:100D500004D0E06D40F48010E065B4E7C26812F0A2
:100D6000007FB0D18268084B1A4042F008028260CE
:100D7000A9E70000000100500003005000070050E8
:100D80000005005000040050C0FFFF7F2DE9F04136
:100D9000044600684FF0A0464C4FB04201D0B84224
:100DA00001D14B4900E04B49896801F01F0503F070
:100DB0001AFA08BB2068C168C06C01F0004110F449
:100DC000C07F00D191B194F85800012814D00120BF
:100DD00084F858002046FFF70DFC01004FF0000298
:100DE0000CD084F858200846BDE8F081E06D40F052
:100DF0002000E0650120F7E70220F5E7E06DC0057F
:100E000004D5206E20F00800206600E02266E06D28
:100E100042F20103984340F48050E06520682E4B75
:100E2000DFF8B8C0B84201D1B64604E0984201D11B
:100E3000E64600E08646864500D02DB9D4F85CE051
:100E40002EF4801EC4F85CE04FF0600EC0F800E0A5
:100E500084F858202068C268920203D5426842F4A0
:100E600080624260A06908282068426807D022F0AA
:100E7000400242602068426842F0200206E022F010
:100E8000200242602068426842F0400242602068CE
:100E9000B84204D0984201D1664600E00646864238
:100EA00009D045B1062D06D0072D04D0E06D40F4E1
:100EB0008010E06597E7C26812F0007F93D18268E6
:100EC000074B1A4042F0080282608CE70001005094
:100ED00000030050000700500005005000040050BF
:100EE000C0FFFF7F704770472DE9F04F044690F830
:100EF00058009BB00D464FF0000B012812D0012086
:100F000084F8580000271797189720684FF0A048DA
:100F1000DFF80C91DFF80CA1434E404506D1304676
:100F2000009608E002201BB0BDE8F08F48450AD1CA
:100F30005046CDF800A003F066F90090206803F059
:100F400062F940B109E0E06D40F02000E06584F80E
:100F500058700120E7E7009848B1E06D40F02000AC
:100F6000E0654FF0010B84F858705846DBE72068C5
:100F7000C446604501D0B04201D12C4800E02C4865
:100F800029682C4B0029816840F61F7221F46041CA
:100F900028D094F8388041EA4831D5F8048041EAF5
:100FA000080181602168614501D0B14205D1DCF8BA
:100FB0000810B368C1F3000109E0D9F80810DAF8A5
:100FC0000860C1F30001C6F300069B683143C3F318
:100FD00000031943C7D1AB68296819438368934359
:100FE00019431BE081602168614501D0B14205D100
:100FF000DCF80810B368C1F3000109E0D9F8081063
:10100000DAF80850C1F30001C5F300059B682943D5
:10101000C3F300031943A6D1816891438160A2E71D
:101020000004005000050050000100500003005073
:1010300000070050000600502DE9F84F0027044635
:10104000009790F85800DFF814840D46B94601283F
:1010500010D0012684F85860206803F0D0F858B109
:10106000E06D40F02000E065012784F85890384694
:10107000BDE8F88F0220FBE7D5E900200C232168AA
:1010800003EA901319440B6B00F01F004FF01F0C84
:101090000CFA00FCC2F3846223EA0C03824013437F
:1010A0000B63206803F0ABF88246206803F097F8E2
:1010B0005AEA00013CD1AA6829682068B2F1004FC1
:1010C00037D003F0ACF82068416921F0004141615C
:1010D00020686A69C168C1F3C10149008A40296971
:1010E000042931D000EB81002B68016EDFF870C35A
:1010F00003F0F84301EA0C011343194341F00041A6
:10110000016620682A69A96900EB8200026E22F05C
:1011100080720A430266297F22682869012910D05B
:10112000002102EB8000026E22F000720A43026688
:101130007DE0002203F073F82068416941F000412E
:10114000C5E74FF00071ECE7002103F03CF84003E5
:1011500020684FF0000171D003F035F890FAA0F04C
:10116000B0FA80F1286842036DD090FAA0F0B0FA8E
:1011700080F0814204D100221146206803F06DF80E
:101180000121206803F01FF8400320684FF001019F
:101190005CD003F018F890FAA0F0B0FA80F128685B
:1011A000420358D090FAA0F0B0FA80F0814204D106
:1011B00000220121206803F050F80221206803F08A
:1011C00002F8400320684FF0020147D002F0FBFF15
:1011D00090FAA0F0B0FA80F12868420343D090FA68
:1011E000A0F0B0FA80F0814204D1002202212068F0
:1011F00003F033F80321206802F0E5FF4003206884
:101200004FF0030132D002F0DEFF90FAA0F0B0FA06
:1012100080F1286842032ED090FAA0F0B0FA80F056
:10122000814204D100220321206803F016F82068CF
:1012300002F0DDFF10B3AAE000E004E002F0C3FF1B
:10124000C0F384618EE7C0F3846092E702F0BBFFD5
:10125000C0F38461A3E7C0F38460A7E702F0B3FFA3
:10126000C0F38461B8E7C0F38460BCE702F0ABFF71
:10127000C0F38461CDE7C0F38460D1E721682A7BA5
:10128000286851F8B03FC0F3120C23EA0C0302F0B7
:10129000180C744A22FA0CF2024013430B60E968FE
:1012A000414574D1286841031AD090FAA0F1B1FAEF
:1012B00081F1491C01F01F0109294FEA403130D862
:1012C000002910D090FAA0F1B1FA81F101F10101E9
:1012D00001F01F0106FA01F608D1C0F3846109E0AC
:1012E000C0F38461E5E7C0F38461EFE790FAA0F111
:1012F000B1FA81F101F1010101F01F0146EA8161BA
:1013000002D1C0F3846003E090FAA0F0B0FA80F05C
:1013100000F1010000F01F0000EB400041EA005125
:1013200031E000290DD090FAA0F1B1FA81F101F17C
:10133000010101F01F0106FA01F605D1C0F3846135
:1013400006E0C0F38461F2E790FAA0F1B1FA81F10E
:1013500001F1010101F01F0146EA816102D1C0F3F0
:10136000846003E090FAA0F0B0FA80F000F1010090
:1013700000F01F003C4A00EB400002EB005041EA45
:10138000000141F00071AA68206802F048FF374868
:101390002A6802423FF469AE20684FF0A04C344BFB
:1013A000344E354D604501D0A84201D1194600E0C8
:1013B00031468968DFF8C48001F0E071424503D00E
:1013C000DFF8BC80424521D15FEA01281ED4604588
:1013D00006D02C4A90427FF448AEA84200D0334653
:1013E00041F40000996821F0E071014399602648BA
:1013F00026490068B0FBF1F0401C00EB4000800083
:1014000000E0401E00900028FBD12EE6DFF880802F
:1014100042450FD15FEAC1180CD4A84202D11D4A3F
:101420009042F2D0604502D0A84200D0334641F04D
:1014300080700CE0DFF860804245E6D14A02E4D4D7
:10144000A842E2D0604500D0334641F4800099685C
:1014500021F0E0710143996007E6000000007F4041
:1014600000F0FF03FFFF0700000020FE00000880DF
:10147000000300500007005000010050000021C38D
:101480001000C0900006005078000020400D0300BE
:10149000000052C700050050000084CB7047704721
:1014A0002DE9F84F04460068066845684FF0A048EB
:1014B000DFF89092404501D0484501D1A24800E0B4
:1014C000A248806800F01F07B0070ED5A8070CD50A
:1014D000E06DC00603D4E06D40F40060E065204696
:1014E000FFF715F9216802200860DFF864B2DFF821
:1014F00064A2700701D5680703D430073FD52807D9
:101500003DD5E06DC00603D4E06D40F40070E065A9
:10151000206802F07CFE60B32068484501D1414656
:1015200004E0584501D1514600E00146814208D00F
:101530003FB1052F05D0092F03D0484503D14146BF
:1015400006E0C16805E0584501D1514600E001467A
:10155000C96889040DD4016809070AD502F04FFE55
:1015600058B3E06D40F01000E065206E40F00100DF
:1015700020662046FFF792FF21680C200860B00625
:1015800001D5A80603D470065FD568065DD5E06D69
:10159000C00603D4E06D40F40050E0652068C16CE3
:1015A00011F4C07F1AD00021009102F030FE0246F3
:1015B0002068484514D1414617E02068416821F071
:1015C0000C014160E06D20F48070E065E06DC004C6
:1015D000CFD4E06D40F00100E065CAE70121E3E708
:1015E000584501D1514600E00146814208D03FB143
:1015F000062F05D0072F03D0484503D1414606E00A
:10160000C16805E0584501D1514600E00146C9686E
:10161000009BA3B18B0102D58AB18A040FD4026862
:1016200052060CD589020AD402F0D9FDF0B3E06D60
:1016300040F01000E065206E40F00100206620467A
:10164000FFF712FB21686020086030060BD52806E2
:1016500009D5E06D40F48030E065204600F096F951
:10166000216880200860F0050CD5E8050AD5E06DFA
:1016700040F40030E0652046FFF734FC21684FF469
:1016800080700860B0050CD5A8050AD5E06D40F45F
:101690008020E0652046FFF726FC21684FF40070AB
:1016A0000860F00631D5E8062FD500E009E0E06BD0
:1016B000E8B12068EFB3404501D0484512D1224837
:1016C00011E02068416821F060014160E06D20F484
:1016D0008050E065E06DC005B1D4E06D40F00100E0
:1016E000E065ACE71948806800F4604050B1E06DF7
:1016F00040F48060E065206E40F0020020662046E5
:10170000FFF7CDFE216810200860700517D5680529
:1017100015D5E06D40F48040E065206E40F0080093
:10172000206621684FF4806008602046BDE8F84FCD
:1017300000E001E0FFF799BAC068C007D6E7BDE84E
:10174000F88F000000010050000300500007005017
:101750000005005000040050F8B54FF000050400EB
:101760002E46009502D0E06D10B107E00120F8BDD3
:10177000204600F00DF9266684F8586020688168DC
:10178000C1F3407119B18168744A114081602068C9
:101790008168C1F3007189B98168714A114041F0D3
:1017A000805181606F4870490068B0FBF1F04000E3
:1017B000801C00E0401E00900028FBD1206881685A
:1017C000C1F3007141B9E16D41F01001E165216E95
:1017D00041F001012166012502F011FDE16DC9060C
:1017E00000D430B1E06D40F01000E06501252846DE
:1017F000F8BDE06D20F4807040F00200E0652068E4
:1018000002F0F5FC40BB20684FF0A043574A9842D5
:1018100001D0904204D199689668C1F300010AE0B2
:1018200053498968534EC1F30001B668C6F30006F8
:101830003143514EB668C6F3000631430CD198428D
:1018400001D0904201D14D4800E04D486168826866
:1018500022F47C120A438260E168E06B627F0843F5
:10186000A16841EA4231084394F8241040EA01405B
:10187000012904D1218D434A02EB41410843E16A29
:1018800029B101F47871226B014342EA0100216819
:10189000CA683D4B1A400243CA6020680169626B06
:1018A00021F0406111430161206802F098FC70BB97
:1018B000207F94F83810800340EA41012068C26814
:1018C00044F202039A430A43C26020690028206858
:1018D00001690AD041F480310161206850F8C01FCD
:1018E00022696FF30D01114307E021F4803101619A
:1018F000206850F8C01F6FF30D01016094F840009C
:10190000012813D02068016921F00101016160699B
:1019100001282068016B19D021F00F010163E06DEF
:1019200020F0020040F00100E06560E7D4E91120FA
:101930000243D4E91301084302432068016940F2DD
:10194000FC7399430A4342F00101DFE721F00F02E3
:10195000216A491E0A430263E1E70000C0FFFF5FFE
:10196000C0FFFF7F78000020400D03000001005001
:101970000004005000050050000600500003005015
:10198000000700500000FEFF0740F0FF7047000016
:10199000F0B59BB00446142115A8FEF724FD542190
:1019A0006846FEF720FD4FF40041206800268A03B8
:1019B0002E4D03272E4CB0F1A04F10D02D4B984246
:1019C00052D168461192009100F08CFF08B1FEF7E9
:1019D0009CFE2868401C2860012825D02CE0684621
:1019E0001192009100F07EFF08B1FEF78EFE28688C
:1019F000401C2860012807D1E06C40F40050E064EE
:101A0000E06C00F400501A90E06C40F00100E064DB
:101A1000E06C179600F001001A900720CDE9150739
:101A200015A94FF0904015E0E06C40F40050E064E0
:101A3000E06C00F400501A90E06C40F00400E064A8
:101A4000E06C179600F004001A902720CDE91507E6
:101A500015A9094800F060F800221146122000F094
:101A6000C1F9122000F0B0F91BB0F0BD0000002059
:101A700000100240000100500008004870B590F8C6
:101A80002510002401222346022907D00421C16326
:101A900080F8252080F82430012429E001680D68B1
:101AA00025F00E050D6001680D6825F001050D603B
:101AB000816C0D6825F480750D6090F84410154612
:101AC00001F01F018A40016C4A60D0E913124A609C
:101AD000416D31B10A6822F480720A60D0E91612B1
:101AE0004A6080F8255080F82430816B01B1884726
:101AF000204670BD70B5044600F0ECF80546601C49
:101B000002D004484068044400F0E4F8401BA042BE
:101B1000FAD370BD6C0000202DE9F84FDFF88891F2
:101B20000022A9F1040B03274FF00F0C09F1040A5E
:101B3000ABF1040EB1E0012595402B4073D00C7938
:101B400004F00304012C01D0022C15D18668540046
:101B500007FA04F826EA0806D1F80C8008FA04F817
:101B600048EA0608C0F808804468AC430D79C5F31C
:101B700000159540254345600C79E443A40708D03F
:101B8000C568540007FA04F6B5438E68A6402E4394
:101B9000C6600C7904F00304022C11D1D40800EBC8
:101BA0008406356A5407E40E0CFA04F825EA0805A1
:101BB000D1F8108008FA04F848EA0508C6F8208031
:101BC0000568540007FA04F6B5430E7906F00306DB
:101BD000A6402E4306604C6814F4403F5CD0334C62
:101BE000256E45F001052566246E22F0030504F0FC
:101BF000010400942E4C05EB0408D8F80850940713
:101C0000260F0CFA06F4A543B0F1904F04D0294CEE
:101C1000A04203D1012417E0002415E0264CA04285
:101C200002D1022410E037E0244CA04201D1032469
:101C30000AE0234CA04201D1042405E0214CA0423B
:101C400001D1052400E00624B4402C43C8F8084024
:101C5000D9F800404D464E689C43F60200D51C431F
:101C60002C60DAF8004055464E689C43B60200D519
:101C70001C432C60DBF800405D464E689C43B60375
:101C800000D51C432C60DEF8004075464E689C432E
:101C9000F60300D51C432C60521C0B6833FA02F487
:101CA0007FF449AFBDE8F88F0804014000100240FE
:101CB000000001400004004800080048000C0048F3
:101CC00000100048001400480AB181617047816229
:101CD0007047000001488068704700006C000020D9
:101CE0000248816842681144816070476C0000209E
:101CF00010B50024032000F095F80F2000F008F83C
:101D000008B1012401E000F047F8204610BD0000B2
:101D100030B505461B4887B0816D41F010018165E3
:101D2000806D05A900F010000690684601F054F897
:101D300001F072F81449154AB0FBF1F11448491E3C
:101D40000260416040F2E7320021C0E90321816076
:101D500001F007FD040012D10D4801F05DFD040003
:101D60000DD1362000F030F8102D07D20022294680
:101D7000362000F037F80748056000E0012407B07E
:101D8000204630BD0010024040420F0000100040CD
:101D9000580400206C0000200A4882B0016E41F017
:101DA00001010166016E01F001010091816D41F0B8
:101DB00080518165806D00F08050009002B000F08D
:101DC00089BD000000100240002809DB00F01F025E
:101DD000012191404009800000F1E020C0F800118D
:101DE00070470000F0B40E4B1B68C3F30223C3F12D
:101DF0000704042C00D904241D1D072D01D2002343
:101E000000E0DB1E012606FA04F56D1E0D409D4024
:101E10009E40761E164045EA0601F0BC04F096BFCF
:101E20000CED00E0064A00F0070110684FF6FF03D2
:101E3000184040EA01200349084310607047000041
:101E40000CED00E00000FA0501220168C0F8D02284
:101E5000002280F8C82231F8540F40F001000880B9
:101E6000088840F0020008801046704770B50F4D9A
:101E7000044669B101290AD1D4F8D80204F085F8E2
:101E8000607A002803D0286840F00600286070BD02
:101E9000607A28B102F06CFE286820F00600286005
:101EA000D4F8D802BDE8704004F007B810ED00E0A7
:101EB00010B50C0607D501F0070101EB810100EB1D
:101EC000C100103005E001EB810100EBC10000F51D
:101ED000A87099B232B1012202730181190C4181BB
:101EE000002010BD00220273C180F9E701EB8102DE
:101EF00000EBC202D0F8D802526A03F0BDBE01EB7B
:101F0000810200EBC202D0F8D802D2F8642103F0BB
:101F100007BF70B504460B0601F0070000EB800117
:101F200004EBC1014FF001024FF0000502D54A74E5
:101F3000103103E081F8515101F5A871087094F84F
:101F40009002012808D084F89022206804F05BFBFE
:101F500084F89052002070BD022070BD70B5044618
:101F600001F00F002279904201D9012070BD0B06CB
:101F700001F0070000EB800104EBC1014FF001020A
:101F80004FF0000502D54A74103103E081F8515139
:101F900001F5A8718D70087094F89002012808D09E
:101FA00084F89022206804F0CEFB84F89052002040
:101FB00070BD022070BD2DE9F04704685FEA424819
:101FC0000B788D69B4F850804FF0000C4BF68F768B
:101FD00048F2800748F68F7948F2C00A444428D571
:101FE00040F2024808EBC30834F80840C4F309047F
:101FF000A54203D32D1B8D6102D00BE0C1F818C0A0
:10200000056835F823C00CEA060C8CF400563E43F4
:1020100025F82360520609D50B78026832F8235060
:1020200005EA090545EA0A0522F8235074B30A892E
:1020300027E040F2064808EBC30834F80840C4F330
:102040000904A54203D32D1B8D6102D00BE0C1F81A
:1020500018C0056835F823C00CEA060C8CF400564D
:102060003E4325F82360520609D40B78026832F803
:10207000235005EA090545EA0A0522F823502CB148
:102080004A8949690068234604F033FE2046BDE8CA
:10209000F0872DE9F047054600680C465FEA426884
:1020A000D1F818C016460978B0F8508048F68F77F6
:1020B0004CF280094FF400424FF6FF7A4FF00003D4
:1020C000404475D540F2024808EBC10830F80800DA
:1020D000C0F30900844514D9BCEB000CC4F818C047
:1020E00010D0760408D52E6836F821C00CEA070C0B
:1020F0004CEA090C26F821C094F82410012949D093
:102100005BE1A361607810B1012813D01AE0286860
:10211000B0F85020104400EBC100B0F80214C1F335
:102120000901A0F80214B0F8021441F40041A0F82B
:10213000021407E02868B0F85020104400EBC100FA
:10214000A0F802346178286811B1012913D01AE08F
:10215000B0F850100844217800EBC100B0F8061424
:10216000C1F30901A0F80614B0F8061441F40041C7
:10217000A0F8061407E0B0F850100844217800EBEE
:10218000C100A0F8063421782846FFF7AFFE70049E
:102190006FD412E1616901446161E1690144E16167
:1021A0002669216AB14204D33046091A216205E04A
:1021B00040E084F8243009B108462362617811B107
:1021C00001292BD033E02968B1F850301944237825
:1021D00001EBC301B1F80234C3F30903A1F80234DF
:1021E00001F202413E2809D94309C60600D15B1E0F
:1021F0000E8842EA832216430E8018E048B1420856
:10220000C30700D0521C0B880AEA822213430B80BA
:102210000DE00A8842F400420A8008E02968B1F81B
:1022200050201144227801EBC201A1F8020483B2CC
:102230002289BEE040F2064808EBC10830F80800E9
:10224000C0F30900844515D3BCEB000CC4F818C0DA
:1022500011D0760408D42E6836F821C00CEA070C99
:102260004CEA090C26F821C094F82410012953D017
:10227000A3E047E0A361607810B1012813D01AE011
:102280002868B0F85020104400EBC100B0F80214E8
:10229000C1F30901A0F80214B0F8021441F400419E
:1022A000A0F8021407E02868B0F85020104400EBB2
:1022B000C100A0F802346178286811B1012913D057
:1022C0001AE0B0F850100844217800EBC100B0F8D3
:1022D0000614C1F30901A0F80614B0F8061441F47D
:1022E0000041A0F8061407E0B0F850100844217827
:1022F00000EBC100A0F8063421782846FFF7F6FD70
:1023000070045AD42178286830F821203A4042EAF3
:10231000090220F8212050E0616901446161E1690E
:102320000144E1612669216AB14203D33046091AAA
:10233000216204E009B10846236284F824306378FE
:10234000296813B1012B2AD031E0B1F8503019447B
:10235000237801EBC301B1F80634C3F30903A1F8F4
:10236000063401F206413E2809D94309C60600D1C8
:102370005B1E0E8842EA832216430E8017E048B1A6
:102380004208C30700D0521C0B880AEA822213437A
:102390000B800CE00A8842F400420A8007E0B1F8A2
:1023A00050201144227801EBC201A1F80604628991
:1023B00083B26169286804F0B6FC2178286830F897
:1023C000212048F6BF731A4082F0300248F28003A1
:1023D0001A4320F821200020BDE8F08701F0070112
:1023E00001EB810100EBC100D0F86C0170472DE9D1
:1023F000F04104460E0601F0070000EB800104EBFB
:10240000C1014FF001074FF0000502D54F741031A4
:1024100003E081F8515101F5A871022B08700A619F
:10242000CB7000D10D7194F89002012809D084F886
:102430009072206803F0A8FF284684F89052BDE807
:10244000F0810220FBE710B501F0070404EB8401E2
:1024500000EBC101C1E959230022C1F86C2181F8C8
:10246000512181F85041006801F5A87104F0BEF9CE
:10247000002010BD70B5044601F00700227990429B
:1024800001D9012070BD0B064FF000054FF001028D
:1024900006D500EB800104EBC1014A74103107E05E
:1024A00001EB810104EBC10181F8515101F5A871E3
:1024B0008A70087094F89002012808D084F890225D
:1024C000206804F07AF984F89052002070BD022050
:1024D00070BD10B501F0070404EB840100EBC101ED
:1024E000C1E90923012281F834200B630023CB6268
:1024F0004A7401F8104F006804F078F9002010BD0C
:1025000010B50446006804F0F1FB010404D5204630
:10251000BDE8104002F052B941050ED5206830F8F0
:10252000441F21F480610180204600F007F9204615
:10253000BDE81040002100F02DB9410405D5206808
:1025400030F8441F21F480417DE0810405D52068E6
:1025500030F8441F21F4005175E0C1041FD52068F4
:1025600030F8401F21F004010180206830F8401F3E
:1025700021F00801018094F8C802012806D100204A
:1025800084F8C80201462046FFF770FC204600F0A0
:10259000E9F8206830F8441F21F4805153E0010528
:1025A00012D5206830F8401F41F0080101802068F2
:1025B00030F8441F21F400610180206830F8401F8A
:1025C00041F0040101800AE0010629D5206830F8B5
:1025D000441F21F08001018094F8C80218B1204600
:1025E00000F008F910BD206830F8401F41F00401E8
:1025F0000180206830F8401F41F00801018001206F
:1026000084F8C8022068B0F854003C2101EA900028
:10261000C4F8CC022046BDE810400121FFF726BCDB
:10262000810509D5206830F8441F21F4007101802C
:10263000204600F0ABF810BDC005FCD5206830F88E
:10264000441F21F48071018010BD70B5040004D0D6
:1026500094F89102002510B106E0012070BD84F8C5
:102660009052204600F03EF8032084F89102206842
:1026700004F061F8002101260BE001EB810004EB7E
:10268000C00046740174C57405624562491CC9B234
:10269000856220798842F0D8002111E001EB8100A9
:1026A00004EBC00080F8515180F8501180F853516C
:1026B000C0F86051C0F86451491CC9B2C0F86851F3
:1026C00020798842EAD894E8070004F02BF82573B3
:1026D00084F89162A07A012802D12046FFF7B4FB6A
:1026E000002070BD10B596B0044654216846FDF731
:1026F0007AFE1049206888421AD1401400900020C8
:102700000F90684600F0EEF808B1FDF7FEFF0A48AA
:10271000816D41F400018165806D002200F40000AC
:10272000159003211420FFF75DFB1420FFF74CFBED
:1027300016B010BD005C00400010024070B50446A9
:1027400040790125022801D0FDF7DFFF2946D4F8A2
:10275000D80203F0CCFBD4F8D802BDE8704003F0F7
:102760007FBB000010B50446407A30B106480168CE
:1027700021F00601016002F0FBF9D4F8D802BDE8AF
:10278000104003F09ABB000010ED00E0D0F8D80232
:1027900003F09DBB10B5044690F8900201280AD0C2
:1027A000012084F890022173206804F0B6FA00201A
:1027B00084F8900210BD022010BDD0F8D82200F598
:1027C0002671104603F09FBB10B5044690F89002A6
:1027D00001280CD0012084F89002206804F076FAD9
:1027E000206803F098FF002084F8900210BD0220BA
:1027F00010BD000010B50446D0F8D80203F0C5FBA8
:10280000607A002804D00348016841F006010160A5
:1028100010BD000010ED00E02B492C4B0A6832215E
:102820004A432B4940B1B0F5007F086829D020F415
:10283000C06040F480602CE00868C0F341200228AA
:1028400004D051F8800F20F4807022E0D1F880008D
:1028500020F48070C1F88000086820F4C06040F463
:1028600000700860B2FBF3F0401C00E0401E4A69B3
:10287000520501D50028F9D1486940050AD5032041
:102880007047C0F34120022806D051F8800F40F471
:102890008070086000207047D1F8800040F480709C
:1028A000C1F88000086820F4C06040F4007008603F
:1028B000B2FBF3F0401C00E0401E4A695205DBD534
:1028C0000028F9D1D8E700007800002040420F002E
:1028D000007000400248816841F480418160704787
:1028E000007000402DE9F84F044600260068C14DF5
:1028F000374600035DD5A86D4FF00009C00009D42C
:10290000A86D40F08050A865A86D4FF0010900F057
:1029100080500090DFF8E0A2DAF8001041F48071F6
:10292000CAF80010FFF7D6F9804607E0FFF7D2F9A2
:10293000A0EB0800022801D9032632E0DAF80000F3
:10294000C005F3D56EBBD5F8900010F4407014D0DC
:10295000216D814211D0D5F89000D5F8901020F467
:10296000407041F48031C5F89010D5F8901021F4F2
:102970008031C5F89010C5F89000C0077ED0FFF7F1
:10298000A9F9804641F2883A05E0FFF7A3F9A0EBE8
:1029900008015145D0D8D5F890008007F5D5002E14
:1029A0006CD03746B9F1000F03D0A86D20F08050ED
:1029B000A8652078C00707D0D5F88800616820F0A6
:1029C00003000843C5F888002078800707D5D5F8AC
:1029D0008800A16820F00C000843C5F88800207822
:1029E000400707D5D5F88800E16820F0300008439B
:1029F000C5F888002078000707D5D5F88800216938
:102A000020F0C0000843C5F888002078C00607D52C
:102A1000D5F88800616920F440700843C5F8880043
:102A20002078800607D5D5F88800A16920F4406099
:102A30000843C5F888002078400607D5D5F88800F7
:102A4000E16920F440500843C5F88800207800066A
:102A500007D5D5F88800216A20F440400843C5F81E
:102A600088002088C00507D5D5F88800616A20F461
:102A700040300843C5F88800206800E024E0800367
:102A800007D5D5F89C00A16A20F003000843C5F8DB
:102A90009C002088800507D5D5F88800E16A20F4DD
:102AA00040200843C5F888002088400519D5D5F88E
:102AB0008800216B20F440100843C5F88800206B83
:102AC000B0F5801F09D00CE0D5F89000216D20F4FE
:102AD00040700843C5F8900064E7E86840F480104F
:102AE000E860208800050FD5D5F88800616B20F4D8
:102AF00040000843C5F88800606BB0F5800F03D133
:102B0000E86840F48010E8602088C0040FD5D5F84C
:102B10008800A16B20F040700843C5F88800A06BC6
:102B2000B0F1807F03D1E86840F48010E86020882D
:102B300081044FF000600ED5D5F88810E26B21F0CB
:102B400040611143C5F88810E16B814203D1E96807
:102B500041F48011E960218849040ED5D5F8881028
:102B6000226C21F040611143C5F88810216C81422C
:102B700003D1E86840F48010E860208800040FD595
:102B8000D5F88800616C20F040500843C5F88800F3
:102B9000606CB0F1805F03D1E86840F48030E86099
:102BA0002068C0030FD5D5F88800A16C20F0404004
:102BB0000843C5F88800A06CB0F1804F03D1E868E5
:102BC00040F48030E860206840030FD5D5F89C00C1
:102BD000E16C20F440100843C5F89C00E06CB0F5AF
:102BE000001F03D1E86840F48010E8603846BDE873
:102BF000F88F000000100240007000402DE9F047FF
:102C00000D4604004FF0000725D0DFF8AC91D9F84D
:102C1000000000F00F00A8420CD2D9F8001021F0FB
:102C20000F012943C9F80010D9F8000000F00F0087
:102C3000A84210D12168614EC80741F2883A58D0A5
:102C40006068DFF87C81032808D0022830682CD027
:102C5000400500282BDB0120BDE8F08730688001AB
:102C6000F9D5F06800F00302F068C0F30310401CCF
:102C7000032A18D0534AB2FBF0F0F268C2F30622DE
:102C80005043F268C2F34162521C5200B0FBF2F0B2
:102C9000404517D9B06810F0F00F0CD0880711D557
:102CA000A06840B10EE0484AE5E78003D1E700F0B4
:102CB000D7F8404506D9B06820F0F00040F0800019
:102CC000B0608027B068616820F003000843B060FE
:102CD000FFF700F8804605E0FEF7FCFFA0EB0801D7
:102CE00051453BD8B068616800F00C00B0EB810F33
:102CF000F2D12068810714D5400703D5B06840F4AD
:102D0000E060B0602078000705D5B06820F460501E
:102D100040F4E060B060B068A16820F0F0000843C3
:102D200004E0802F03D1B06820F0F000B060D9F843
:102D30000010484601F00F01A94217D90168C846A2
:102D400021F00F0129430160FEF7C4FF0746D14679
:102D500006E0FEF7BFFFC11B494501D903207BE711
:102D6000D8F8000000F00F00A842F2D12078400708
:102D700005D5B068E16820F4E0600843B0602078D1
:102D8000000706D5B068216920F4605040EAC10010
:102D9000B06000F065F8B1680C4AC1F30311515CF2
:102DA00001F01F01C8400A4908600A480068BDE8F0
:102DB000F047FEF7ADBF00000020024000100240C7
:102DC00000B4C4040024F40000127A0082710008E8
:102DD000780000206C0000200F2202600C4A9368EB
:102DE00003F003034360936803F0F0038360936888
:102DF00003F4E063C36092684FF4E06303EAD20235
:102E000002610448006800F00F000860704700008D
:102E10000010024000200240054806490068896809
:102E2000054AC1F30221515C01F01F01C8407047FF
:102E30007800002000100240927100080548064901
:102E400000688968054AC1F3C221515C01F01F0185
:102E5000C8407047780000200010024092710008BE
:102E6000184A10B59068C0F38101174801290BD0AA
:102E700091684410C1F38101022906D09168C1F321
:102E80008101032903D0002010BD204610BDD16868
:102E900001F00303D168C1F30311491C032B02D0D5
:102EA000B0FBF1F001E0B4FBF1F0D168C1F3062111
:102EB0004843D168C1F34161491C4900B0FBF1F0BE
:102EC00010BD0000001002400024F4002DE9F8437A
:102ED000040078D02078F54DC00745D0A868E9688F
:102EE00000F00C0001F003010C2802D0082817D0D4
:102EF00001E0032914D06068B0F5803F17D0B0F529
:102F0000A02F286817D020F480302860286820F48B
:102F1000802028606068D8B1FEF7DCFE064613E02A
:102F20002868800320D560680028D2D01CE028687B
:102F300040F48030EDE740F480202860F7E7FEF7AA
:102F4000C9FE801B64286ED828688003F7D50BE083
:102F5000FEF7C0FE064604E0FEF7BCFE801B6428B8
:102F6000F1D828688003F7D4207880074BD5A8686B
:102F7000E96800F00C0001F003010C2802D00428DD
:102F80000DD001E002290AD0E068002828682BD083
:102F900040F480702860FEF79DFE064619E0286820
:102FA000400502D5E068002893D06868217C20F0B5
:102FB000FE4040EA01606860BD480068FEF7A8FE78
:102FC000002800D11FE06DE1FEF784FE801B02287F
:102FD000B9D828684005F7D56868217C20F0FE4004
:102FE00040EA016068600EE020F480702860FEF71F
:102FF00071FE064604E0FEF76DFE801B0228A2D893
:1030000028684005F7D42078000728D56069002893
:10301000D5F8940012D040F00100C5F89400FEF7F6
:1030200059FE064605E08FE0FEF754FE801B02289D
:1030300089D8D5F894008007F6D510E020F001007B
:10304000C5F89400FEF746FE064604E0FEF742FE91
:10305000801B022878D8D5F894008007F6D4207811
:10306000400761D5A86D0027C00008D4A86D40F0C6
:103070008050A865A86D012700F0805000908D4811
:103080000168C90511D40168804641F4807101606E
:10309000FEF720FE064604E0FEF71CFE801B022819
:1030A00052D8D8F80000C005F6D5A068012815D080
:1030B0000528D5F8900016D020F00100C5F8900042
:1030C000D5F8900020F00400C5F89000A06841F207
:1030D0008838B8B1FEF7FEFD06460EE0D5F8900040
:1030E00040F00100F0E740F00400C5F89000F5E77B
:1030F000FEF7F0FD811B414526D8D5F890008007EA
:10310000F6D50CE0FEF7E6FD064604E0FEF7E2FD2C
:10311000811B414518D8D5F890008007F6D41FB11F
:10312000A86D20F08050A8652078800628D5A06979
:103130000028D5F8980012D040F00100C5F898009A
:10314000FEF7C8FD064605E072E0FEF7C3FD801BF2
:1031500002286DD8D5F898008007F6D510E020F049
:103160000100C5F89800FEF7B5FD064604E0FEF73D
:10317000B1FD801B02285BD8D5F898008007F6D4F3
:10318000E069E8B3A968C1F3810103295BD0022893
:10319000286820F08070286003D0FEF79BFD04466D
:1031A00049E0FEF797FD064604E0FEF793FD801B1D
:1031B00002283DD828688001F7D4F4E908016FF0AF
:1031C0000F0202EB01110843218A5204490802EB65
:1031D0004151A26841EA02210843217D4FF07E421D
:1031E000490802EB41610843217B40EAC160E9687C
:1031F000314A11400843E860286840F0807000E0E0
:1032000052E02860E86840F08070E860FEF762FDF8
:10321000044604E0FEF75EFD001B022808D828687B
:103220008001F7D540E0FEF755FD001B022802D9CA
:103230000320BDE8F88328688001F4D4E8681F49BA
:103240000840E86030E00128F3D0E868226A00F026
:103250000301914226D1616A00F0F00209011039A0
:1032600091421FD1A26A00F4FE41B1EB022F19D1A5
:1032700094F82C2000F07841B1EBC26F12D1218E6E
:1032800000F4C00249084905A1F50011914209D195
:1032900094F8341000F0C06049084906A1F10071AB
:1032A000814201D00120C4E70020C2E700100240A3
:1032B0006C000020007000400C809F01FCFFEEFEBF
:1032C0007047000038B5016804464A688868C04302
:1032D000430606D5C30704D1D3435B0601D4E16C92
:1032E00005E0830708D4D3431B0605D4216D01B044
:1032F0002046BDE830400847830603D5430601D584
:10330000C30551D4D3439B064ED443060AD494F844
:103310005D30032B49D0236E43F004032366CB6852
:103320008B680093830609D4236E43F00103236660
:103330008B6800930B6823F040030B60C00506D434
:10334000206E40F008002066206880680090206EA3
:10335000002829D02068416821F0E0014160012067
:1033600084F85D00900701D4D00722D0206841681E
:1033700021F003014160114DA06D40B18563A06D46
:10338000FEF77CFB18B1206E40F040002066606DB7
:10339000002809D08563606DFEF770FB002803D01C
:1033A000206E40F04000206638BDC86888680090F4
:1033B00038BD2046FFF784FF38BD0000514B0008A0
:1033C00070B5040009D0606A002540B125616561CF
:1033D000A56294F85D0040B10CE0012070BD60680A
:1033E000B0F5827FF4D0E561F2E784F85C502046C6
:1033F00000F05CF8022084F85D002068016821F08C
:1034000040010160E0684FF4E062904201D9002180
:1034100001E04FF48051B0F5706F02D0904200D0BF
:10342000A562A088228900F4827002F4044210434D
:10343000227C02F002021043227D02F001021043BE
:10344000228B02F400721043227F02F038021043F4
:1034500094F8202002F080021043228D02F40052E2
:10346000104322681060A069042202EA104094F818
:10347000242001F4805102F01002104394F834200B
:1034800002F008021043A28902F47062104308435C
:10349000216848602068C16921F40061C161256626
:1034A000012084F85D00002070BD000010B586B0DA
:1034B000044614216846FCF796FF164920688842A6
:1034C00025D11548016E41F480510166016E01F469
:1034D00080510591C16C41F00201C164C06C694624
:1034E00000F002000590382000900220019000209A
:1034F00002900390052004900848FEF70DFB00227F
:1035000002212320FEF76EFC2320FEF75DFC06B0AF
:1035100010BD0000003001400010024000040048CF
:10352000704770477047000030B590F83C20012A82
:1035300045D0012280F83C20CA688B6822F4407292
:103540001A434B6822F480621A430B6822F400622B
:103550001A430B6922F480521A434B6922F4005239
:103560001A430B6B22F480421A430B8B22F4702215
:1035700042EA0342CB6922F080521A43114D03689C
:103580000024AB4205D0104DAB4202D00F4DAB42F0
:1035900010D10D8D22F4700242EA05520D6A22F01C
:1035A00080722A434D6A22F000722A43C96A22F0CF
:1035B00000520A435A6480F83C40002030BD02208B
:1035C00030BD0000002C014000340140005001409B
:1035D0007047704770470000F0B590F83C20012A12
:1035E00043D0012580F83C50022280F83D2003683A
:1035F0005A689C681E4E1F4FDFF87CC0B34203D050
:10360000BB4201D0634504D122F4700E4A6842EAFD
:103610000E02DFF868E002EA0E02D1F800E04EEA9E
:10362000020EC3F804E00268B24212D0B2F1804F39
:103630000FD0134B9A420CD0124B9A4209D0124B26
:103640009A4206D0BA4204D0104B9A4201D0624549
:1036500004D1896824F080031943916080F83D50BB
:10366000002180F83C100846F0BD0220F0BD0000AB
:10367000002C014000340140005001408FFFFFFD4D
:103680000004004000080040000C004000400140E1
:1036900010B5044649B104290AD008290BD094F882
:1036A000470001280AD0012010BD94F84400F8E733
:1036B00094F84500F5E794F84600F2E70220A9B334
:1036C000042937D0082938D084F84700042220681C
:1036D00001F01DFB2068416C41F400414164184930
:1036E0002068884214D0B0F1804F11D0154988422B
:1036F0000ED0154988420BD01449884208D014498D
:10370000884205D01349884202D01349884207D124
:103710008168124A1140062906D0B1F5803F03D0D6
:10372000016841F001010160002010BDFFE784F84D
:103730004400CBE784F84500C8E784F84600C5E7B5
:10374000002C01400004004000080040000C004034
:1037500000340140004001400050014007000100DA
:10376000704710B5040003D094F83D0010B107E095
:10377000012010BD002084F83C00204600F022F813
:10378000022084F83D00211D206801F041FA01204B
:1037900084F8480084F83E0084F83F0084F8400034
:1037A00084F8410084F8420084F8430084F844001F
:1037B00084F8450084F8460084F8470084F83D000A
:1037C000002010BD08B50068104A1149904208D188
:1037D000086E40F400600866086E00F40060009017
:1037E00008BD0C4A9042FBD1886D40F0020088650C
:1037F000886D002200F00200009005211D20FEF7D8
:10380000F1FABDE808401D20FEF7DEBA002C0140A9
:10381000001002400004004090F83D10012901D042
:1038200001207047022180F83D100168CA6842F00B
:103830000102CA6000681349884214D0B0F1804F79
:1038400011D0114988420ED0104988420BD010493E
:10385000884208D00F49884205D00F49884202D0DB
:103860000E49884207D181680D4A1140062906D0C9
:10387000B1F5803F03D0016841F0010101600020F3
:1038800070470000002C0140000400400008004088
:10389000000C004000340140004001400050014055
:1038A000070001002DE9F041044690F83C00002596
:1038B0000F4601281CD0012684F83C60022084F8C1
:1038C0003D0020688168324A114021F47F418160C7
:1038D0003968B1F5005F2DD017DC402948D00ADCEB
:1038E000D9B1102919D0202917D0302948D114E096
:1038F0000220BDE8F081502928D060292ED07029FF
:103900000DD0B1F5805F3BD13BE011F00F0F37D107
:103910000811A0F58030072832D8206825E0D7E9C3
:103920000121FB68206801F0FFF92068816841F0FF
:10393000770109E0D7E90121FB68206801F0F4F97B
:103940002068816841F4804181601AE0FA687968F2
:10395000206801F0BDFB5021206806E0FA68796814
:10396000206801F0C6FB6021206801F0E7F908E05B
:10397000FA687968206801F0ABFB40212068F4E721
:10398000012584F83D60002084F83C002846B0E71B
:1039900088FFCEFF70472DE9F04104460068C668F5
:1039A00005694FF00007A90713D5B10711D5F91E16
:1039B000016101202077206880698007204602D0BD
:1039C000FFF7E8FF04E000F02DF9204600F00AFAC6
:1039D0002777680716D5700714D521686FF00400A3
:1039E0000861022020772068806910F4407F20461B
:1039F00002D0FFF7CFFF04E000F014F9204600F0FA
:103A0000F1F92777280715D5300713D521686FF00E
:103A100008000861042020772068C06980072046DC
:103A200002D0FFF7B7FF04E000F0FCF8204600F0FA
:103A3000D9F92777E80616D5F00614D521686FF076
:103A400010000861082020772068C06910F4407FCA
:103A5000204602D0FFF79EFF04E000F0E3F8204686
:103A600000F0C0F92777E80708D0F00706D02168F2
:103A70006FF001000861204600F046FA280601D4E4
:103A8000A80408D5300606D521686FF402500861F5
:103A90002046FFF746FDE80508D5300606D5216823
:103AA0006FF4807008612046FFF73AFD680608D57C
:103AB000700606D521686FF040000861204600F0CE
:103AC0002DFAA80608D5B00606D521686FF02000AB
:103AD00008612046FFF726FDE80208D5F00206D56A
:103AE00021686FF4801008612046FFF772FDA8027C
:103AF00008D5B00206D521686FF400100861204691
:103B0000FFF766FD680208D5700206D521686FF4DC
:103B1000800008612046FFF75DFD28020AD53002CB
:103B200008D521686FF4000008612046BDE8F04127
:103B3000FFF716BEBDE8F0812DE9F04186B00446DE
:103B400014216846FCF74FFC324A216800243248B1
:103B500002254FF09048914243D1C16C41F00401DD
:103B6000C164C16C01F004010591C16C41F0020116
:103B7000C164C16C01F002010591C16C41F0010109
:103B8000C164C06C694600F00100059008200090F7
:103B9000CDE901542148CDE90345FDF7BDFF4FF4C0
:103BA000C0400090CDE9015406261D4FCDE90346E3
:103BB00069463846FDF7B0FFA8030090CDE90154EF
:103BC0000420CDE9034069463846FDF7A5FF4FF4D0
:103BD000E0600090CDE90154CDE9034669464046D6
:103BE00013E0B1F1804F12D1C16C41F00101C16409
:103BF000C06C694600F00100059020200090CDE9DE
:103C000001540120CDE903404046FDF785FF06B091
:103C1000BDE8F081002C014000100240000800487F
:103C200000040048704770B5044690F83C00002638
:103C30000D4601280BD0012084F83C000C2A4AD004
:103C400007DC82B1042A20D0082A06D131E0022004
:103C500070BD102A53D0142A63D00126002084F8A6
:103C60003C00304670BD206801F072F82068816920
:103C700041F0080181612068816921F004018161BE
:103C8000206881692A69114311E0206801F0B6F8C3
:103C90002068816941F4006181612068816921F4B3
:103CA00080618161206881692A6941EA022181611C
:103CB000D4E7206801F0F2F82068C16941F00801FA
:103CC000C1612068C16921F00401C1612068C16936
:103CD0002A69114311E0206801F030F92068C169B8
:103CE00041F40061C1612068C16921F48061C16152
:103CF0002068C1692A6941EA0221C161AEE72068F2
:103D000001F06CF92068016D41F00801016520683F
:103D1000016D21F0040101652068016D2A691143DC
:103D200011E0206801F096F92068016D41F400610E
:103D300001652068016D21F4806101652068016DD5
:103D40002A6941EA0221016588E710B5040003D021
:103D500094F83D0010B107E0012010BD002084F868
:103D60003C00204600F022F8022084F83D00211D8E
:103D7000206800F04DFF012084F8480084F83E00E0
:103D800084F83F0084F8400084F8410084F8420041
:103D900084F8430084F8440084F8450084F8460021
:103DA00084F8470084F83D00002010BD08B5006885
:103DB000B0F1804F12D10A48816D41F00101816557
:103DC000806D002200F00100009007211C20FEF70A
:103DD00009F8BDE808401C20FDF7F6BF08BD00004B
:103DE000001002407047000070B5044669B1042914
:103DF0000ED008290FD00C2910D0102911D094F81A
:103E00004300012810D0012070BD94F83E00F8E76F
:103E100094F83F00F5E794F84000F2E794F8410089
:103E2000EFE794F84200ECE70220E9B304294AD016
:103E300008294BD00C294CD010294DD084F84300D0
:103E40000122206800F056FF25492068254A264BAC
:103E5000264D88420BD0904209D0984207D0244E7C
:103E6000B04204D0234EB04201D0A84203D1466CE8
:103E700046F4004646642068884211D0B0F1804F75
:103E80000ED01D4988420BD01C49884208D01C49DD
:103E9000884205D0904203D0984201D0A84209D16F
:103EA0008168184A114000E00AE0062906D0B1F501
:103EB000803F03D0016841F001010160002070BD26
:103EC00084F83E00BCE784F83F00B9E784F840007E
:103ED000B6E784F84100B3E784F84200B0E7000099
:103EE000002C0140003401400040014000500140DE
:103EF0000044014000480140000400400008004028
:103F0000000C00400700010000680349884201D10D
:103F1000FDF7E6BE7047000000100040704790F8C3
:103F20008410012918D0012180F884102421C0F8C0
:103F3000881001680A680B6823F001030B6022F007
:103F4000005100224266036819602021C0F88810E1
:103F500080F88420104670470220704770B50446F0
:103F600090F8840001281DD0012084F884002420CA
:103F7000C4F8880020680568026822F00102026027
:103F80002068826822F060620A438260204601F065
:103F9000C3F8206805602020C4F88800002084F859
:103FA000840070BD022070BD70B5044690F8840096
:103FB00001281DD0012084F884002420C4F8880042
:103FC00020680568026822F00102026020688268A9
:103FD00022F060420A438260204601F09DF820688A
:103FE00005602020C4F88800002084F8840070BD9B
:103FF000022070BD10B5040003D0D4F8880010B1C1
:1040000007E0012010BD002084F88400204600F065
:1040100027F82420C4F888002068016821F00101F5
:104020000160A06A10B1204601F098F8204601F026
:1040300079F90128E6D02068416821F49041416077
:104040002068816821F02A0181602068016841F0C0
:10405000010101602046BDE8104001F0E3B8000016
:1040600010B59CB00446142115A8FCF7BCF95421E6
:104070006846FCF7B8F917492068884227D1042020
:104080000024009003946846FEF72CFC08B1FCF76E
:104090003CFB1148816D41F480218165816D01F403
:1040A00080211A91C16C41F00201C164C06C15A954
:1040B00000F002001A904FF4406015900220CDE904
:1040C00016040720CDE918400448FDF725FD1CB073
:1040D00010BD0000004800400010024000040048ED
:1040E0002DE9F8430446D0F888001F4615460E46D1
:1040F000202802D00220BDE8F883AEB1A5B100208F
:10410000C4F890002120C4F888001834FDF7E2FDBF
:10411000A5878146E58754F8100C183C4FF020081D
:10412000B0F5805F02D003E00120E4E7206910B120
:104130003546002610E000250EE08021204601F0E3
:104140003DFAB8B9D5B115F8010B21688862B4F809
:104150005600401EA4F85600B4F856004B464FF0E7
:10416000000200970028E8D14FF04001204601F0FE
:1041700025FA40B1C4F888800320BCE736F8020B6A
:10418000C0F30800E1E7C4F888800020B3E7FEE749
:10419000F0B500230A24302537261F4610E0B4EB83
:1041A000107F02D905EB107C01E006EB107C01F8D2
:1041B00013C001EB430C00015B1C8CF80170DBB2F7
:1041C0009342ECD3F0BD00EB8100006E00F0F840AC
:1041D000704700EB8100006E00F0F8407047806887
:1041E000C0F3C00070478068C0F3C00070478068AB
:1041F000C0F3000070478068C0F30000704780681B
:10420000C0F3800070478068C0F380007047C068CA
:1042100010F4406F01D00020704701207047042344
:1042200003EAD15310B518444369C1F3045107247C
:104230008C40A3438A401343436110BD042303EA27
:10424000D15310B518444369C1F3045107248C407D
:10425000A3438A401343436110BD00EB8100016E0C
:1042600021F0004111430166704700EB8100016EAF
:1042700021F000411143016670470000F0B59BB08A
:1042800000241794189420210FA81994FCF7ABF878
:104290003C216846FCF7A7F837484FF0A0410425B9
:1042A00001604FF44031C0E9011485610121C4600F
:1042B000C0E9044104774477016280F82440C46275
:1042C000046380F83840C46380F84040FDF744FA46
:1042D00008B1FCF71AFA17A927481794FCF704FE4F
:1042E00008B1FCF712FA254E10A906207F270F9679
:1042F00081E89100CDE913540FA91F48FCF79CFEFB
:1043000008B1FCF702FA01A90920009681E89100A2
:10431000CDE904540320089084200A908DF82440AD
:104320004FF480708DF825400B908DF826408DF865
:10433000304069461048FCF7EBF908B1FCF7E5F9A5
:104340000F48009040F20F10019069460A48FCF7B0
:10435000DFF908B1FCF7D9F90A48009040F21520BE
:10436000019069460448FCF7D3F9002801D0FCF716
:10437000CCF91BB0F0BD0000A40100200200300405
:10438000040060080800900C30B589B02021684610
:10439000FCF729F819481849002401604FF440310E
:1043A000C0E90114C46004250461C0E9054504772F
:1043B00044770121016280F82440C462046380F8DC
:1043C0003840C46380F84040FDF7C6F908B1FCF7F7
:1043D0009CF90B4800900620CDE901047F2005944C
:1043E000CDE9030569460548FCF726FE002801D003
:1043F000FCF78BF909B030BD00010050100200201D
:104400000008302EF0B587B014216846FBF7EBFFAB
:104410002A48C16C41F00401C164C16C01F004017F
:104420000591C16C41F02001C164C16C01F0200113
:104430000591C16C41F00101C164C16C01F0010141
:104440000591C16C41F00201C164C16C01F002012F
:104450000591C16C41F00801C164C06C184D00F0B9
:1044600008004FF460440590002221462846FDF7DD
:104470002BFC144E002204213046FDF725FC0127B9
:10448000CDE9004700240294694628460394FDF7CD
:1044900043FB4FF47070CDE900046946284602944E
:1044A000FDF73AFB04200090CDE9017469463046DF
:1044B0000394FDF731FB07B0F0BD0000001002408F
:1044C00000080048000C0048124810B5104901606F
:1044D0004FF48271416000214FF4E062C0E90212A2
:1044E0000222026101224261520282611822C0E965
:1044F000072107224162C0E90A1201634163FEF706
:104500005FFF002803D0BDE81040FCF7FEB810BDE7
:10451000003001407C02002030B59BB0002419948B
:104520001A9417941894149415941C2168461694A0
:10453000FBF759FF342107A8FBF755FF39483849E5
:10454000C0E900142021816042F2CF01C0E90314C8
:104550008021C0E90541FFF704F908B1FCF7D5F85F
:104560004FF4805517A92F481795FFF79BF908B10D
:10457000FCF7CBF82B48FFF7E8FB08B1FCF7C5F8D0
:104580001494159414A927481694FFF725F808B138
:10459000FCF7BBF86020CDE9000402940394049476
:1045A0000594002269461F480694FFF73CFB08B1BA
:1045B000FCF7ABF8042269461A48FFF734FB08B150
:1045C000FCF7A3F8082269461648FFF72CFB08B150
:1045D000FCF79BF80C2269461248FFF724FB08B150
:1045E000FCF793F8079422200B950894CDE9094035
:1045F0004FF40050CDE90C0400030E94CDE90F40B8
:10460000C012CDE9124007A911940648FEF78CFFAD
:1046100008B1FCF77AF80348FFF78EFA1BB030BDFB
:10462000002C0140E002002010B58AB0002407945D
:1046300008941C2168460994FBF7D5FE14484FF0F6
:104640008041C0E90014611EC0E902410461846137
:10465000FFF77BFB08B1FCF758F8079407A90C4853
:104660000994FEF7B9FF08B1FCF74FF86020CDE9D7
:10467000000402940022694605480494FFF7D3FA27
:1046800008B1FCF742F80248FFF756FA0AB010BD2D
:104690002C03002010B588B0002417480094019422
:1046A0000294039404940594124906940160A9218C
:1046B000C0E9011440F2E731C0E903148461FFF757
:1046C00050F808B1FCF721F84FF48050009069468B
:1046D0000948FFF7E7F808B1FCF717F8049404A9B4
:1046E00005480694FEF778FF002801D0FCF70DF886
:1046F00008B010BD0004004078030020174810B532
:104700001549016016494160002181600C22C16099
:10471000C0E904128161C161016241628162FFF7F7
:1047200069FC08B1FBF7F1FF00210C48FFF73CFCE6
:1047300008B1FBF7EAFF00210848FFF70FFC08B1BA
:10474000FBF7E3FF0548FFF7EAFB002803D0BDE8CD
:104750001040FBF7DABF10BD00480040C403002042
:1047600060E3160010B500220F49104801F05FFA0F
:1047700008B1FBF7CAFF0E490C4801F030FC08B144
:10478000FBF7C3FF0B49094801F0B8F808B1FBF784
:10479000BCFF064801F09EFC002803D0BDE8104095
:1047A000FBF7B3BF10BD000004000020A0090020EB
:1047B0005801002058000020FEE7FEE72DE9F05FD9
:1047C000044640F2064940F2024B4FF0000AAFE1C6
:1047D000B0F8441011F00F0638D030F826805FEAA8
:1047E00008417DD530F8261040F68F72114041F017
:1047F000800120F8261006EB860004EBC00595F832
:104800005C0105F5A87500286BD0E878022869D00E
:104810002978206830F8212048F68F731A4048F232
:10482000C0031A4320F821202978206830F821207D
:104830005204B0F8502002EB00037DD50BEBC10110
:10484000595A8F05BF0D78D02A89CDE0C90629D4E1
:10485000018848F60F72114041F400410180206840
:1048600004F11005B0F85010227C01440BEBC2009B
:10487000085AC0F30900E062616A084460620021DE
:104880002046FDF733FB207B0028A0D0A869002834
:104890009DD1207B216840F08000A1F84C0084F875
:1048A0000CA045E1018804F5A8750A051FD5B0F8EC
:1048B00050102A78014409EBC200085A04F5267109
:1048C000C0F30903EB61EA88206802F012FA20685D
:1048D000018840F68F72114041F08001018002E0B2
:1048E0009AE066E072E02046FDF767FF20E10904E8
:1048F000D7D5018840F68F72114041F080010180C8
:104900002068B0F850102A78014409EBC200085A18
:1049100083059B0DEB610DD0696959B1EA88206868
:1049200002F0E7F9E96968690844686100212046F6
:10493000FDF7E5FA206801E04FE04DE001880A0547
:10494000AFD4C1F301310329ABD0B0F85010084403
:10495000B0F80614C1F30901A0F80614296900F2A1
:1049600006403E2909D94A09C90600D1521E0188CC
:104970004FF4004343EA822209E0B1B14A08C90773
:1049800000D0521C01884FF6FF7303EA82221143C4
:104990000180206801884BF68F72114081F44051EC
:1049A00048F2800211430180C2E0018841F40041D5
:1049B000EEE72068B0F850102B780A1809EBC30115
:1049C000515A8F05BF0D13D0EA880DE042462946A3
:1049D0002046FDF7F0FA07460AE009EBC101595AF3
:1049E0008F05BF0D04D06A893B46696902F081F9E1
:1049F000E8693844E861686938446861A86910B1B9
:104A00002869B84204D929782046FDF778FA03E0EE
:104A10002946206801F0EAFE5FEA08602DD506EB22
:104A2000860004EBC001206830F8262048F60F739A
:104A30001A4042F4004220F82620C87C1031012898
:104A40001CD05FEAC8506FD42068B0F850200B78B3
:104A500002440BEBC300105A8A69C0F3090082427A
:104A60005AD9121A8A6159D04A6902444A61CA69FC
:104A70001044C861206801F0B9FE59E0C1F818A0DF
:104A8000087B534620B35FEA486022D5487810B1CE
:104A9000012814D03EE02068B0F8502010440A7875
:104AA00000EBC200B0F80224C2F30902A0F802240D
:104AB000B0F8022442F40042A0F802242AE0206860
:104AC000B0F8502010440A7800EBC200A0F802347D
:104AD00020E04A78206812B1012A13D01AE0B0F819
:104AE000502010440A7800EBC200B0F80624C2F34C
:104AF0000902A0F80624B0F8062442F40042A0F807
:104B0000062407E0B0F8502010440A7800EBC200F9
:104B1000A0F80634097802E0C1F818A0D9B22046FE
:104B2000FDF7E4F904E0FFE742462046FDF7B1FA5D
:104B30002068B0F8441009043FF54AAE0020BDE8F3
:104B4000F09F70470148FEF7BDBB00007C020020CB
:104B500010B5806A0021A0F84610C187FEF7B0FBAF
:104B600010BD70470178407841EA002070477047D7
:104B700010B594B038216846FBF735FC14210EA817
:104B8000FBF731FC0020FDF747FE212000900121BA
:104B90004FF48030019002200324CDE90610CDE9C6
:104BA00008412A21CDE90A100C900D906846FEF7C5
:104BB0008DF908B172B6FEE70F20CDE90E04002092
:104BC00010901190129004210EA8FEF717F80028FB
:104BD00001D072B6FEE714B010BD000002480168B3
:104BE00041F470010160704788ED00E00148FEF774
:104BF000D2BE00002C0300200148FEF7CCBE00000E
:104C0000780300200148FEF7C6BE000058040020CB
:104C10002DE9F04F02682E4D2E4E2F4FDFF8BCC00D
:104C20002F4B304C4FF0804BA8420BD0584509D049
:104C3000B04207D0B84205D0604503D0984201D0B9
:104C4000A04204D122F070084A6842EA0802DFF864
:104C50009880DFF89890DFF898A0A84211D05845C6
:104C60000FD0B0420DD0B8420BD0604509D0984269
:104C700007D0404505D0484503D0504501D0A0425B
:104C800003D122F44076CA6832434E6922F0800292
:104C9000324302608A68C2620A688262A84209D00E
:104CA000984207D0404505D0484503D0504501D033
:104CB000A04201D109690163012141610169C9076C
:104CC00003D0016921F001010161BDE8F08F00000E
:104CD000002C01400004004000080040000C00408F
:104CE00000340140005001400040014000440140B8
:104CF0000048014010B501F01F010123046A8B40F8
:104D00009C430462036A8A401343036210BD10B5DA
:104D100001F00F010423046A8B409C430462036A80
:104D20008A401343036210BD10B5846842EA03222F
:104D300024F47F440A432243826010BD8268034BFF
:104D40001A400A4342F00701816070478FFFCFFF8E
:104D50002DE9F047056A026A22F001020262426808
:104D600083691F4C25F0020523400C6823F00303E0
:104D70001C438B681C4E2B431A4D1C4FDFF870C030
:104D8000DFF87090DFF870A0A84209D0B04207D0D9
:104D9000B84205D0604503D0484501D0504506D102
:104DA00023F00808CB6843EA080323F00403A84271
:104DB00009D0B04207D0B84205D0604503D048457D
:104DC00001D0504505D14D6922F4407215438A69DE
:104DD0002A4342608461496841630362BDE8F08709
:104DE0008FFFFEFF002C01400034014000400140D5
:104DF000004401400048014000500140F0B5056A00
:104E0000026A22F010020262426883691C4C1E4E44
:104E100023400C6823F4407343EA042425F0200364
:104E20008D681A4F43EA0513164DA84203D0B042CD
:104E300001D0B84207D1D1F80CC023F0800343EA77
:104E40000C1323F04003A8420CD0B0420AD0104DFE
:104E5000A84207D00F4DA84204D00F4DA84201D060
:104E6000B84207D14D6922F4406242EA85028D6959
:104E700042EA850242608461496881630362F0BD51
:104E8000FF8FFFFE002C0140003401400050014024
:104E9000004001400044014000480140F0B5056A6F
:104EA000026A22F4807202624268C3691C4C1E4E80
:104EB00023400C6823F003031C4325F400738D6822
:104EC0001A4F43EA0523174DA84203D0B04201D040
:104ED000B84207D1D1F80CC023F4006343EA0C2395
:104EE00023F48063A8420CD0B0420AD0104DA842EF
:104EF00007D0104DA84204D00F4DA84201D0B842AF
:104F000007D14D6922F4405242EA05128D6942EA06
:104F100005124260C4614968C1630362F0BD0000CC
:104F20008FFFFEFF002C0140003401400050014083
:104F3000004001400044014000480140F0B5056ACE
:104F4000026A22F4805202624268C3691C4C1E4EFF
:104F500023400C6823F4407343EA042425F40053EF
:104F60008D681A4F43EA0533164DA84203D0B0426C
:104F700001D0B84207D1D1F80CC023F4004343EA72
:104F80000C3323F48043A8420CD0B0420AD0104D19
:104F9000A84207D00F4DA84204D00F4DA84201D01F
:104FA000B84207D14D6922F4404242EA85128D6928
:104FB00042EA85124260C461496801640362F0BD3F
:104FC000FF8FFFFE002C01400034014000500140E3
:104FD00000400140004401400048014030B5056AEE
:104FE000026A22F4803202624268036D124C23404E
:104FF0000C681C4325F400330D8943EA05430F4D2B
:10500000A8420ED00E4DA8420BD00E4DA84208D09B
:105010000D4DA84205D00D4DA84202D00C4DA8421E
:1050200004D14D6922F4803242EA052242600465CF
:1050300049688164036230BD8FFFFEFF002C014090
:10504000003401400040014000440140004801405C
:105050000050014030B5056A026A22F480120262F3
:105060004268036D134C23400C6843EA042425F482
:1050700000130D8943EA05530F4DA8420ED00F4D82
:10508000A8420BD00E4DA84208D00E4DA84205D024
:105090000D4DA84202D00D4DA84204D14D6922F415
:1050A000802242EA8522426004654968C164036245
:1050B00030BD0000FF8FFFFE002C01400034014096
:1050C00000400140004401400048014000500140C0
:1050D00010B5046A036A23F001030362836923F0B5
:1050E000F00343EA021324F00A020A4383610262D6
:1050F00010BD10B5036A046A24F0100404628469C8
:1051000023F0A00324F4704444EA023243EA01117C
:105110008261016210BD000030B5416EB9B1026814
:1051200091689268C1F342610B4C520FA35CDD00A1
:1051300004F108039A5CB5FBF2F2A0F86A20625C05
:10514000595CD200B2FBF1F1A0F8681030BD01212A
:10515000A0F86A10F8E700007271000890F82810B3
:10516000090706D501684A68836B22F400421A4396
:105170004A6090F82810C90706D001684A68C36AD7
:1051800022F400321A434A6090F82810890706D5A5
:1051900001684A68036B22F480321A434A6090F82F
:1051A0002810490706D501684A68436B22F480221B
:1051B0001A434A6090F82810C90606D501688A6823
:1051C000C36B22F480521A438A6090F82810890633
:1051D00006D501688A68036C22F400521A438A607B
:1051E00090F82810490611D501684A68436C22F4EA
:1051F00080121A434A60416CB1F5801F06D10168E4
:105200004A68836C22F4C0021A434A6090F828105E
:10521000090606D501684A68C06C22F400220243E0
:105220004A6070472DE9F84300250446C0F89050C5
:10523000FCF750FD8046206800684FF0200600070C
:105240006FF07E4713D54346002231042046009775
:1052500000F0B4F958B1206850E8001F21F0800137
:1052600040E80012002AF6D1C4F8886021E02068E6
:105270000068400722D5434600224FF480012046B3
:10528000009700F09BF9C8B1206850E8001F21F496
:10529000907140E80012002AF6D12068083050E8EA
:1052A000001F21F0010140E80012002AF5D1C4F8E6
:1052B0008C6084F884500320BDE8F883C4F88860CB
:1052C000C4F88C6044F86C5F656025760020F3E7D5
:1052D00010B5016851E8002F22F4907241E80023D4
:1052E000002BF6D10E4B0168083151E8002F1A400F
:1052F00041E80024002CF6D1C16E012908D10168D3
:1053000051E8002F22F0100241E80023002BF6D1D3
:105310002021C0F88C100021C166416710BD00003B
:10532000FEFFFFEF2DE9F041044600682269A16805
:10533000E66911436269002532431143934B0268C9
:10534000934E32400A43026020684168E26821F4CB
:105350004051114341602168A069994201D0226AFD
:1053600010438A688B4E324002438A602068C16ACB
:10537000626A21F00F011143C162874922688748A0
:105380008A420DD1D0F8880010F0030006D0012821
:1053900067D0022854D0032851D164E001204FE0A7
:1053A0007F498A420BD1D0F8880010F00C0047D01A
:1053B000042845D0082852D00C2840D153E0794920
:1053C0008A420BD1D0F8880010F0300038D0102875
:1053D00047D0202843D0302831D144E072498A4256
:1053E0000BD1D0F8880010F0C00029D0402838D068
:1053F000802834D0C02822D135E06C498A420ED1B1
:10540000D0F8880010F440701AD0B0F5807F28D012
:10541000B0F5007F23D0B0F5407F10D123E09A4251
:105420000DD1D0F8880010F4406009D0B0F5806F3D
:1054300017D0B0F5006F12D0B0F5406F13D0102028
:105440005B495C4E00274FF4004C9A423BD160B15F
:10545000022813D004280BD0082872D10DE00220B6
:10546000EEE70420ECE70820EAE7FDF7D5FC01E0D1
:10547000FDF7F6FC010001D17CE06146606A36F878
:1054800010206668B1FBF2F006EB4603834270D849
:10549000B0EB063F6DD8002308461946FAF72CFFFB
:1054A000090241EA1061020270081018794132467F
:1054B0000023FAF721FF404AA0F54071914258D8E5
:1054C0002168C86056E0E2694FF6EF7862452CD15A
:1054D00009284ED2DFE800F00508114D0D4D4D4D65
:1054E0001000FDF799FC01E0FDF7A8FC010004D1D4
:1054F00040E0FDF7B5FCF9E76146606A36F8100058
:10550000B1FBF0F04100606801EB5001B1FBF0F03D
:10551000A0F1100141452CD84FF6F0710140C0F3C5
:10552000420001432068C16024E0092821D2DFE85D
:1055300000F0050912200E2020201100FDF76CFC60
:1055400002E016E0FDF77AFC010004D112E0FDF75D
:1055500087FCF9E76146606A36F81000B1FBF0F1AC
:10556000606801EB5001B1FBF0F0A0F11001414582
:105570000AD901250120A4F86A0024F8680F2846FA
:10558000E7602761BDE8F08180B299E700800040C4
:10559000F369FFCFFFF4FF11003801400010024013
:1055A0000044004000480040004C004000500040D3
:1055B0000024F4005A710008FFFC0F002DE9F047A9
:1055C0001F4690460D4604464FF00009089E32E003
:1055D000701C30D0FCF77EFBC01BB04218D8BEB1A7
:1055E00020680168490726D5802D24D0402D22D07F
:1055F000C169C94309070DD4082505622046FFF794
:1056000067FEC4F8905084F884900120BDE8F087CC
:105610000320FBE7C069C04300050CD421684FF4A8
:10562000006008622046FFF753FE2020C4F8900077
:1056300084F88490ECE72068C06935EA000004D063
:1056400000204045C4D00020E0E70120F9E7000039
:1056500010B50A46024903A000F0B9FA004810BD8F
:10566000700C002043444320436F6E66696700005E
:105670002DE9F0410D46D0F8C462D0F8BC12E9B172
:1056800005EB850300EB83040027A2693AB106EB22
:10569000C3031B6AB2FBF3F603FB162282B1C1F807
:1056A0001472D0F8C00203692BB1D1F808022A465F
:1056B00001F5047198470020BDE8F0810320FBE765
:1056C00000231A462946A76100F068FCF3E770B58D
:1056D000D0F8BC4205466CB100F058FBC4F80C028F
:1056E000D5F8C012D4F80402CA6804F503719047D3
:1056F000002070BD032070BD70B50446812100F00C
:10570000B2FA002525870121204600F0ACFAA4F862
:1057100078518221204600F0A6FAA4F84C50A4F853
:105720004E50D4F8BC0248B1D4F8C00204F52F742E
:1057300040688047206800F022FE2560002070BD90
:1057400012200880004870472800002010B5D0F8CB
:10575000BC4284B1D0F8C01259B194F80002FF28BD
:1057600007D08B6894F8012221469847FF2084F8DF
:105770000002002010BD032010BD00000A2101809E
:105780000048704780000020432101800048704796
:10579000D000002043210180004870478C00002089
:1057A0004321018000487047140100202DE9F04793
:1057B00004464FF4077000F0E3FD05004FF00007CA
:1057C00035D0C4F8BC52207C4FF010084FF400795B
:1057D000012680B3402302228121204600F02BFBCA
:1057E0002687402302220121204600F024FBA4F852
:1057F0007861A4F84E80082303228221204600F01D
:105800001AFBA4F84C60D4F8C00200688047C5F8C1
:105810001472C5F81872207CD5F80422A8B1402370
:105820000121204600F013FB0020BDE8F087022094
:10583000C4F8BC72F9E7FFE74B46022281212046FB
:1058400000F0F9FA26874B46CCE74B46E8E7000024
:1058500010B50A46024903A000F0B9F9004810BD8E
:10586000700C002043444320496E74657266616386
:1058700065000000042008800048704724000020D4
:1058800010B50A46024903A000F0A1F9004810BD76
:10589000700C002053544D6963726F656C656374BE
:1058A000726F6E696373000010B50A46024903A067
:1058B00000F08DF9004810BD700C002053544D339A
:1058C00032205669727475616C20436F6D506F722F
:1058D0007400000010B5D0F8BC1251B1027C002A4F
:1058E000D1F8042207D04023012100F0B0FA0020B3
:1058F00010BD032010BD4FF40073F5E719B1C0F8D7
:10590000C0120020704703207047000010B51A2015
:1059100008800A480168001D0468001D0068081816
:1059200009D008220649FEF733FC0549042210314C
:105930002046FEF72DFC0248801E10BD9075FF1F0B
:105940003E000020D0F8BC0218B1C0F804120020BC
:10595000704703207047D0F8BC0228B1C0F810226D
:10596000C0F8081200207047032070472DE9FC4161
:105970000646D0F8BC7200200C468DF80000ADF849
:105980000400054637B1207810F0600128D02029A6
:1059900044D102E00320BDE8FC81E288C2B10006E8
:1059A00060780AD5D6F8C0128B6839469847E288E5
:1059B000072A00D90722394628E087F80002A07993
:1059C00087F80102E2883946304600F051F82AE0B3
:1059D000D6F8C012607800228B682146984722E0F2
:1059E000607830B101281ED00A2809D00B2815D1C3
:1059F00010E096F89C02032810D1022201A905E0CC
:105A000096F89C02032809D101226946304600F02D
:105A100049F808E096F89C02032804D02146304655
:105A200000F01BF803252846B5E710B5D0F8B822DA
:105A30000AB152689047002010BD134610B50A46BF
:105A4000002100F004FA002010BD134610B50A46EC
:105A5000002100F0A3FA002010BD10B504468021FB
:105A600000F081FA2046BDE81040002100F07BBA2A
:105A700010B50323C0F89432C0F858211346C0F87B
:105A80005C210A46002100F0E2F9002010BD10B5AB
:105A90000521C0F8941200231A46194600F0D7F9E0
:105AA000002010BD10B50223C0F894328261134665
:105AB000C2610A46002100F071FA002010BD10B545
:105AC0000421C0F8941200231A46194600F066FA21
:105AD000002010BDF8B5044600200D46ADF80000CA
